:100000004BC058C057C056C055C054C053C0DCC1C7
:1000100051C050C04FC04FC04DC04CC04BC04AC073
:1000200049C048C047C07665720A006163206F6EA0
:100030000A006163206F66660A0061632073746161
:10004000740A004143204F46460A004143204F4E68
:100050000A00434D44204F46460A00434D44204F7A
:100060004E0A00464F524345204F4E0A00464F521B
:100070004345204F46460A0056657220312E3031E6
:100080002020466562203133203230313120323336
:100090003A30303A31340A0011241FBECFEDCDBFC3
:1000A00010E0A0E6B0E001C01D92AB37B107E1F768
:1000B00031D11EC2A5CF1F920F920FB60F921124FD
:1000C0008F93809164008F5F8093640085B78F7DEC
:1000D00085BF8F910F900FBE0F901F901895B89A03
:1000E000C09AB99AC19A86B321E030E08227817024
:1000F0008093660086B390E0969587958227932734
:1001000081708093670080B5816080BD80B582601A
:1001100080BD8BB780628BBF0895FC0170E002C088
:10012000759567954A95E2F76095617080818617AD
:1001300011F480E00895608381E0089510926000DA
:1001400010926100109262001092630008959C0169
:10015000DB018C91F901E80FF11D94919A3029F49B
:100160004A3041F04D3019F405C0491719F08FEFAE
:100170008C9308C08F5F8C93280F311DF9018491F7
:10018000882311F080E008958FEF8C9381E008952B
:100190008D9A089580916600882351F480916700BC
:1001A000882321F480916800882311F0959A08959E
:1001B0009598089511BC8D9A92DF1092600010926C
:1001C0006100109262001092630060E076E980E0C6
:1001D00090E0A3D085B78F7A85BF78940895CF93A8
:1001E000DF93EC01FE0121968491882311F0C0D0A9
:1001F000F9CFDF91CF9108951F93CAD0182FB8D0AF
:1002000086E290E060E670E0412FA1DF882319F0DC
:1002100088E790E0E4DF8BE290E061E670E0412F58
:1002200096DF882319F081E08093680082E390E0F4
:1002300062E670E0412F8BDF882311F01092680096
:100240008AE390E063E670E0412F81DF882311F1BB
:100250008AE08ED080916600882319F08DE690E0C8
:1002600006C080916700882319F083E690E0B7DF2D
:1002700080916800882319F08BE590E002C082E548
:1002800090E0ADDF959B03C08BE490E002C083E477
:1002900090E0A5DF1D3011F01A3051F48AE068D0EB
:1002A0001092600010926100109262001092630040
:1002B0001F910895CF93DF93C1E0D0E085B78062AE
:1002C00085BF309164002091660090916500409157
:1002D000670010C026B32C27217086B390E0969556
:1002E00087958C279D278170481711F4932F02C0A2
:1002F000932F482F391771F72093660030936500CC
:100300004093670001C078DF37D0892BE1F742DFE7
:100310008895D4CF4FDFCEDFFECFEF92FF920F93C1
:100320001F937B018C0122E030E040E050E0B1D02F
:100330002350314F474F5F4FCA01B901A8019701C0
:1003400086D0C901DA010197A109B109292F3A2FF5
:100350004B2F55270196A11DB11D22B9815089B996
:10036000549A539A579A1F910F91FF90EF900895C6
:100370005D9BFECF8CB908958091690090E0409616
:1003800020916A00821B910960E170E04DD00895D0
:1003900090916A0080916900891719F42FEF3FEF5F
:1003A0000CC0892F90E0FC01E559FF4F2081019698
:1003B0008F70907080936A0030E0C9010895809139
:1003C0006A008093690008951F920F920FB60F92F2
:1003D00011242F933F934F938F939F93EF93FF930A
:1003E0004CB180916900E82FF0E031969F012F70A9
:1003F0003070319780916A0090E02817390729F012
:10040000E559FF4F40832093690085B78F7D85BFF5
:10041000FF91EF919F918F914F913F912F910F906D
:100420000FBE0F901F90189597FB092E07260AD034
:1004300077FD04D049D006D000201AF4709561955C
:100440007F4F0895F6F7909581959F4F0895A1E20B
:100450001A2EAA1BBB1BFD010DC0AA1FBB1FEE1F3E
:10046000FF1FA217B307E407F50720F0A21BB30B89
:10047000E40BF50B661F771F881F991F1A9469F705
:1004800060957095809590959B01AC01BD01CF0161
:10049000089597FB092E05260ED057FD04D0D7DF0F
:1004A0000AD0001C38F450954095309521953F4F67
:1004B0004F4F5F4F0895F6F7909580957095619531
:1004C0007F4F8F4F9F4F0895AA1BBB1B51E107C061
:1004D000AA1FBB1FA617B70710F0A61BB70B881FD4
:1004E000991F5A95A9F780959095BC01CD01089563
:0404F000F894FFCFAE
:00000001FF
