:100000004BC058C057C056C055C054C053C0DBC1C8
:1000100051C050C04FC04FC04DC04CC04BC04AC073
:1000200049C048C047C07665720A006163206F6EA0
:100030000A006163206F66660A0061632073746161
:10004000740A004143204F46460A004143204F4E68
:100050000A00434D44204F46460A00434D44204F7A
:100060004E0A00464F524345204F4E0A00464F521B
:100070004345204F46460A0056657220312E3030E7
:100080002020466562203133203230313120313436
:100090003A35323A34350A0011241FBECFEDCDBFB8
:1000A00010E0A0E6B0E001C01D92AB37B107E1F768
:1000B00030D11AC2A5CF1F920F920FB60F92112402
:1000C0008F93809164008F5F809364008F910F9075
:1000D0000FBE0F901F901895B89AC09AB99AC19AFE
:1000E00086B321E030E0822781708093660086B37A
:1000F00090E096958795822793278170809367007B
:1001000080B5816080BD80B5826080BD8BB7806224
:100110008BBF0895FC0170E002C0759567954A9504
:10012000E2F7609561708081861711F480E0089590
:10013000608381E008951092600010926100109237
:1001400062001092630008959C01DB018C91F9011B
:10015000E80FF11D94919A3029F44A3041F04D3066
:1001600019F405C0491719F08FEF8C9308C08F5F01
:100170008C93280F311DF9018491882311F080E0C0
:1001800008958FEF8C9381E008958D9A0895809162
:100190006600882351F480916700882321F48091C0
:1001A0006800882311F0959A08959598089511BCD8
:1001B0008D9A92DF1092600010926100109262009E
:1001C0001092630060E076E980E090E0A5D085B70A
:1001D0008F7A85BF85B7806285BF78940895CF9365
:1001E000DF93EC01FE0121968491882311F0BFD0AA
:1001F000F9CFDF91CF9108951F93C9D0182FB7D0B1
:1002000086E290E060E670E0412F9EDF882319F0DF
:1002100088E790E0E4DF8BE290E061E670E0412F58
:1002200093DF882329F081E0809368008AE09FD0E3
:1002300082E390E062E670E0412F86DF882321F0C0
:10024000109268008AE093D08AE390E063E670E061
:10025000412F7ADF882311F18AE089D080916600EE
:10026000882319F08DE690E006C08091670088230E
:1002700019F083E690E0B3DF80916800882319F0DD
:100280008BE590E002C082E590E0A9DF959B03C07A
:100290008BE490E002C083E490E0A1DF1D3011F018
:1002A0001A3041F4109260001092610010926200C6
:1002B000109263001F910895CF93DF93C1E0D0E0C7
:1002C0003091640020916600909165004091670034
:1002D00010C026B32C27217086B390E096958795A1
:1002E0008C279D278170481711F4932F02C0932FFC
:1002F000482F391771F720936600309365004093BB
:10030000670001C079DF37D0892BE1F740DF88959E
:10031000D7CF4DDFD1DFFECFEF92FF920F931F9328
:100320007B018C0122E030E040E050E0AED0235071
:10033000314F474F5F4FCA01B901A801970183D0E0
:10034000C901DA010197A109B109292F3A2F4B2FD1
:1003500055270196A11DB11D22B9815089B9549A22
:10036000539A579A1F910F91FF90EF9008955D9BBC
:10037000FECF8CB908958091690090E0409620915D
:100380006A00821B910960E170E04AD00895909163
:100390006A0080916900891719F42FEF3FEF0CC0B4
:1003A000892F90E0FC01E559FF4F208101968F7065
:1003B000907080936A0030E0C901089580916A00CE
:1003C0008093690008951F920F920FB60F92112427
:1003D0002F933F934F938F939F93EF93FF934CB142
:1003E00080916900E82FF0E031969F012F70307006
:1003F000319780916A0090E02817390729F0E55974
:10040000FF4F408320936900FF91EF919F918F915F
:100410004F913F912F910F900FBE0F901F90189505
:1004200097FB092E07260AD077FD04D049D006D0C5
:1004300000201AF4709561957F4F0895F6F7909516
:1004400081959F4F0895A1E21A2EAA1BBB1BFD01A7
:100450000DC0AA1FBB1FEE1FFF1FA217B307E407A3
:10046000F50720F0A21BB30BE40BF50B661F771FFB
:10047000881F991F1A9469F76095709580959095DB
:100480009B01AC01BD01CF01089597FB092E052604
:100490000ED057FD04D0D7DF0AD0001C38F4509599
:1004A0004095309521953F4F4F4F5F4F0895F6F798
:1004B00090958095709561957F4F8F4F9F4F0895D0
:1004C000AA1BBB1B51E107C0AA1FBB1FA617B7077A
:1004D00010F0A61BB70B881F991F5A95A9F7809596
:0C04E0009095BC01CD010895F894FFCF69
:00000001FF
